{
  "abi": [
    {
      "type": "constructor",
      "inputs": [
        {
          "name": "plume",
          "type": "address",
          "internalType": "contract IERC20"
        },
        {
          "name": "name",
          "type": "string",
          "internalType": "string"
        },
        {
          "name": "symbol",
          "type": "string",
          "internalType": "string"
        },
        {
          "name": "_feeRecipient",
          "type": "address",
          "internalType": "address"
        }
      ],
      "stateMutability": "nonpayable"
    },
    {
      "type": "function",
      "name": "DEFAULT_ADMIN_ROLE",
      "inputs": [],
      "outputs": [
        {
          "name": "",
          "type": "bytes32",
          "internalType": "bytes32"
        }
      ],
      "stateMutability": "view"
    },
    {
      "type": "function",
      "name": "allowance",
      "inputs": [
        {
          "name": "owner",
          "type": "address",
          "internalType": "address"
        },
        {
          "name": "spender",
          "type": "address",
          "internalType": "address"
        }
      ],
      "outputs": [
        {
          "name": "",
          "type": "uint256",
          "internalType": "uint256"
        }
      ],
      "stateMutability": "view"
    },
    {
      "type": "function",
      "name": "approve",
      "inputs": [
        {
          "name": "spender",
          "type": "address",
          "internalType": "address"
        },
        {
          "name": "value",
          "type": "uint256",
          "internalType": "uint256"
        }
      ],
      "outputs": [
        {
          "name": "",
          "type": "bool",
          "internalType": "bool"
        }
      ],
      "stateMutability": "nonpayable"
    },
    {
      "type": "function",
      "name": "asset",
      "inputs": [],
      "outputs": [
        {
          "name": "",
          "type": "address",
          "internalType": "address"
        }
      ],
      "stateMutability": "view"
    },
    {
      "type": "function",
      "name": "balanceOf",
      "inputs": [
        {
          "name": "account",
          "type": "address",
          "internalType": "address"
        }
      ],
      "outputs": [
        {
          "name": "",
          "type": "uint256",
          "internalType": "uint256"
        }
      ],
      "stateMutability": "view"
    },
    {
      "type": "function",
      "name": "convertToAssets",
      "inputs": [
        {
          "name": "shares",
          "type": "uint256",
          "internalType": "uint256"
        }
      ],
      "outputs": [
        {
          "name": "",
          "type": "uint256",
          "internalType": "uint256"
        }
      ],
      "stateMutability": "view"
    },
    {
      "type": "function",
      "name": "convertToShares",
      "inputs": [
        {
          "name": "assets",
          "type": "uint256",
          "internalType": "uint256"
        }
      ],
      "outputs": [
        {
          "name": "",
          "type": "uint256",
          "internalType": "uint256"
        }
      ],
      "stateMutability": "view"
    },
    {
      "type": "function",
      "name": "decimals",
      "inputs": [],
      "outputs": [
        {
          "name": "",
          "type": "uint8",
          "internalType": "uint8"
        }
      ],
      "stateMutability": "view"
    },
    {
      "type": "function",
      "name": "deposit",
      "inputs": [
        {
          "name": "assets",
          "type": "uint256",
          "internalType": "uint256"
        },
        {
          "name": "receiver",
          "type": "address",
          "internalType": "address"
        }
      ],
      "outputs": [
        {
          "name": "",
          "type": "uint256",
          "internalType": "uint256"
        }
      ],
      "stateMutability": "nonpayable"
    },
    {
      "type": "function",
      "name": "feeBasisPoints",
      "inputs": [],
      "outputs": [
        {
          "name": "",
          "type": "uint256",
          "internalType": "uint256"
        }
      ],
      "stateMutability": "view"
    },
    {
      "type": "function",
      "name": "feeRecipient",
      "inputs": [],
      "outputs": [
        {
          "name": "",
          "type": "address",
          "internalType": "address"
        }
      ],
      "stateMutability": "view"
    },
    {
      "type": "function",
      "name": "getRoleAdmin",
      "inputs": [
        {
          "name": "role",
          "type": "bytes32",
          "internalType": "bytes32"
        }
      ],
      "outputs": [
        {
          "name": "",
          "type": "bytes32",
          "internalType": "bytes32"
        }
      ],
      "stateMutability": "view"
    },
    {
      "type": "function",
      "name": "getVestingDeposit",
      "inputs": [],
      "outputs": [
        {
          "name": "",
          "type": "uint256",
          "internalType": "uint256"
        }
      ],
      "stateMutability": "view"
    },
    {
      "type": "function",
      "name": "getWithdrawRequests",
      "inputs": [
        {
          "name": "user",
          "type": "address",
          "internalType": "address"
        }
      ],
      "outputs": [
        {
          "name": "",
          "type": "tuple[]",
          "internalType": "struct SoleraStaking.WithdrawRequest[]",
          "components": [
            {
              "name": "unlockTime",
              "type": "uint48",
              "internalType": "uint48"
            },
            {
              "name": "receiver",
              "type": "address",
              "internalType": "address"
            },
            {
              "name": "assets",
              "type": "uint256",
              "internalType": "uint256"
            },
            {
              "name": "shares",
              "type": "uint256",
              "internalType": "uint256"
            }
          ]
        }
      ],
      "stateMutability": "view"
    },
    {
      "type": "function",
      "name": "grantRole",
      "inputs": [
        {
          "name": "role",
          "type": "bytes32",
          "internalType": "bytes32"
        },
        {
          "name": "account",
          "type": "address",
          "internalType": "address"
        }
      ],
      "outputs": [],
      "stateMutability": "nonpayable"
    },
    {
      "type": "function",
      "name": "hasRole",
      "inputs": [
        {
          "name": "role",
          "type": "bytes32",
          "internalType": "bytes32"
        },
        {
          "name": "account",
          "type": "address",
          "internalType": "address"
        }
      ],
      "outputs": [
        {
          "name": "",
          "type": "bool",
          "internalType": "bool"
        }
      ],
      "stateMutability": "view"
    },
    {
      "type": "function",
      "name": "lockTimePeriod",
      "inputs": [],
      "outputs": [
        {
          "name": "",
          "type": "uint48",
          "internalType": "uint48"
        }
      ],
      "stateMutability": "view"
    },
    {
      "type": "function",
      "name": "maxDeposit",
      "inputs": [
        {
          "name": "",
          "type": "address",
          "internalType": "address"
        }
      ],
      "outputs": [
        {
          "name": "",
          "type": "uint256",
          "internalType": "uint256"
        }
      ],
      "stateMutability": "view"
    },
    {
      "type": "function",
      "name": "maxMint",
      "inputs": [
        {
          "name": "",
          "type": "address",
          "internalType": "address"
        }
      ],
      "outputs": [
        {
          "name": "",
          "type": "uint256",
          "internalType": "uint256"
        }
      ],
      "stateMutability": "view"
    },
    {
      "type": "function",
      "name": "maxRedeem",
      "inputs": [
        {
          "name": "owner",
          "type": "address",
          "internalType": "address"
        }
      ],
      "outputs": [
        {
          "name": "",
          "type": "uint256",
          "internalType": "uint256"
        }
      ],
      "stateMutability": "view"
    },
    {
      "type": "function",
      "name": "maxWithdraw",
      "inputs": [
        {
          "name": "owner",
          "type": "address",
          "internalType": "address"
        }
      ],
      "outputs": [
        {
          "name": "",
          "type": "uint256",
          "internalType": "uint256"
        }
      ],
      "stateMutability": "view"
    },
    {
      "type": "function",
      "name": "mint",
      "inputs": [
        {
          "name": "",
          "type": "uint256",
          "internalType": "uint256"
        },
        {
          "name": "",
          "type": "address",
          "internalType": "address"
        }
      ],
      "outputs": [
        {
          "name": "",
          "type": "uint256",
          "internalType": "uint256"
        }
      ],
      "stateMutability": "pure"
    },
    {
      "type": "function",
      "name": "name",
      "inputs": [],
      "outputs": [
        {
          "name": "",
          "type": "string",
          "internalType": "string"
        }
      ],
      "stateMutability": "view"
    },
    {
      "type": "function",
      "name": "previewDeposit",
      "inputs": [
        {
          "name": "assets",
          "type": "uint256",
          "internalType": "uint256"
        }
      ],
      "outputs": [
        {
          "name": "",
          "type": "uint256",
          "internalType": "uint256"
        }
      ],
      "stateMutability": "view"
    },
    {
      "type": "function",
      "name": "previewMint",
      "inputs": [
        {
          "name": "shares",
          "type": "uint256",
          "internalType": "uint256"
        }
      ],
      "outputs": [
        {
          "name": "",
          "type": "uint256",
          "internalType": "uint256"
        }
      ],
      "stateMutability": "view"
    },
    {
      "type": "function",
      "name": "previewRedeem",
      "inputs": [
        {
          "name": "shares",
          "type": "uint256",
          "internalType": "uint256"
        }
      ],
      "outputs": [
        {
          "name": "",
          "type": "uint256",
          "internalType": "uint256"
        }
      ],
      "stateMutability": "view"
    },
    {
      "type": "function",
      "name": "previewWithdraw",
      "inputs": [
        {
          "name": "assets",
          "type": "uint256",
          "internalType": "uint256"
        }
      ],
      "outputs": [
        {
          "name": "",
          "type": "uint256",
          "internalType": "uint256"
        }
      ],
      "stateMutability": "view"
    },
    {
      "type": "function",
      "name": "redeem",
      "inputs": [
        {
          "name": "",
          "type": "uint256",
          "internalType": "uint256"
        },
        {
          "name": "",
          "type": "address",
          "internalType": "address"
        },
        {
          "name": "",
          "type": "address",
          "internalType": "address"
        }
      ],
      "outputs": [
        {
          "name": "",
          "type": "uint256",
          "internalType": "uint256"
        }
      ],
      "stateMutability": "pure"
    },
    {
      "type": "function",
      "name": "redeem",
      "inputs": [
        {
          "name": "requestIndex",
          "type": "uint256",
          "internalType": "uint256"
        }
      ],
      "outputs": [
        {
          "name": "",
          "type": "uint256",
          "internalType": "uint256"
        }
      ],
      "stateMutability": "nonpayable"
    },
    {
      "type": "function",
      "name": "renounceRole",
      "inputs": [
        {
          "name": "role",
          "type": "bytes32",
          "internalType": "bytes32"
        },
        {
          "name": "callerConfirmation",
          "type": "address",
          "internalType": "address"
        }
      ],
      "outputs": [],
      "stateMutability": "nonpayable"
    },
    {
      "type": "function",
      "name": "requestRedeem",
      "inputs": [
        {
          "name": "shares",
          "type": "uint256",
          "internalType": "uint256"
        },
        {
          "name": "receiver",
          "type": "address",
          "internalType": "address"
        },
        {
          "name": "owner",
          "type": "address",
          "internalType": "address"
        }
      ],
      "outputs": [
        {
          "name": "",
          "type": "uint256",
          "internalType": "uint256"
        }
      ],
      "stateMutability": "nonpayable"
    },
    {
      "type": "function",
      "name": "revokeRole",
      "inputs": [
        {
          "name": "role",
          "type": "bytes32",
          "internalType": "bytes32"
        },
        {
          "name": "account",
          "type": "address",
          "internalType": "address"
        }
      ],
      "outputs": [],
      "stateMutability": "nonpayable"
    },
    {
      "type": "function",
      "name": "setFeeBasisPoints",
      "inputs": [
        {
          "name": "_feeBasisPoints",
          "type": "uint256",
          "internalType": "uint256"
        }
      ],
      "outputs": [
        {
          "name": "",
          "type": "uint256",
          "internalType": "uint256"
        }
      ],
      "stateMutability": "nonpayable"
    },
    {
      "type": "function",
      "name": "setFeeRecipient",
      "inputs": [
        {
          "name": "_feeRecipient",
          "type": "address",
          "internalType": "address"
        }
      ],
      "outputs": [
        {
          "name": "",
          "type": "address",
          "internalType": "address"
        }
      ],
      "stateMutability": "nonpayable"
    },
    {
      "type": "function",
      "name": "setLockTimePeriod",
      "inputs": [
        {
          "name": "_lockTimePeriod",
          "type": "uint48",
          "internalType": "uint48"
        }
      ],
      "outputs": [],
      "stateMutability": "nonpayable"
    },
    {
      "type": "function",
      "name": "setVestingDuration",
      "inputs": [
        {
          "name": "durationSeconds",
          "type": "uint64",
          "internalType": "uint64"
        }
      ],
      "outputs": [
        {
          "name": "",
          "type": "uint64",
          "internalType": "uint64"
        }
      ],
      "stateMutability": "nonpayable"
    },
    {
      "type": "function",
      "name": "setVestingStart",
      "inputs": [
        {
          "name": "startTimestamp",
          "type": "uint64",
          "internalType": "uint64"
        }
      ],
      "outputs": [
        {
          "name": "",
          "type": "uint64",
          "internalType": "uint64"
        }
      ],
      "stateMutability": "nonpayable"
    },
    {
      "type": "function",
      "name": "supportsInterface",
      "inputs": [
        {
          "name": "interfaceId",
          "type": "bytes4",
          "internalType": "bytes4"
        }
      ],
      "outputs": [
        {
          "name": "",
          "type": "bool",
          "internalType": "bool"
        }
      ],
      "stateMutability": "view"
    },
    {
      "type": "function",
      "name": "symbol",
      "inputs": [],
      "outputs": [
        {
          "name": "",
          "type": "string",
          "internalType": "string"
        }
      ],
      "stateMutability": "view"
    },
    {
      "type": "function",
      "name": "totalAssets",
      "inputs": [],
      "outputs": [
        {
          "name": "",
          "type": "uint256",
          "internalType": "uint256"
        }
      ],
      "stateMutability": "view"
    },
    {
      "type": "function",
      "name": "totalSupply",
      "inputs": [],
      "outputs": [
        {
          "name": "",
          "type": "uint256",
          "internalType": "uint256"
        }
      ],
      "stateMutability": "view"
    },
    {
      "type": "function",
      "name": "transfer",
      "inputs": [
        {
          "name": "to",
          "type": "address",
          "internalType": "address"
        },
        {
          "name": "value",
          "type": "uint256",
          "internalType": "uint256"
        }
      ],
      "outputs": [
        {
          "name": "",
          "type": "bool",
          "internalType": "bool"
        }
      ],
      "stateMutability": "nonpayable"
    },
    {
      "type": "function",
      "name": "transferFrom",
      "inputs": [
        {
          "name": "from",
          "type": "address",
          "internalType": "address"
        },
        {
          "name": "to",
          "type": "address",
          "internalType": "address"
        },
        {
          "name": "value",
          "type": "uint256",
          "internalType": "uint256"
        }
      ],
      "outputs": [
        {
          "name": "",
          "type": "bool",
          "internalType": "bool"
        }
      ],
      "stateMutability": "nonpayable"
    },
    {
      "type": "function",
      "name": "underlyingAsset",
      "inputs": [],
      "outputs": [
        {
          "name": "",
          "type": "address",
          "internalType": "address"
        }
      ],
      "stateMutability": "view"
    },
    {
      "type": "function",
      "name": "vestedAmount",
      "inputs": [
        {
          "name": "timestamp",
          "type": "uint64",
          "internalType": "uint64"
        }
      ],
      "outputs": [
        {
          "name": "",
          "type": "uint256",
          "internalType": "uint256"
        }
      ],
      "stateMutability": "view"
    },
    {
      "type": "function",
      "name": "vestingDeposit",
      "inputs": [
        {
          "name": "from",
          "type": "address",
          "internalType": "address"
        },
        {
          "name": "amount",
          "type": "uint256",
          "internalType": "uint256"
        }
      ],
      "outputs": [
        {
          "name": "",
          "type": "uint256",
          "internalType": "uint256"
        }
      ],
      "stateMutability": "nonpayable"
    },
    {
      "type": "function",
      "name": "vestingDuration",
      "inputs": [],
      "outputs": [
        {
          "name": "",
          "type": "uint256",
          "internalType": "uint256"
        }
      ],
      "stateMutability": "view"
    },
    {
      "type": "function",
      "name": "vestingEnd",
      "inputs": [],
      "outputs": [
        {
          "name": "",
          "type": "uint256",
          "internalType": "uint256"
        }
      ],
      "stateMutability": "view"
    },
    {
      "type": "function",
      "name": "vestingStart",
      "inputs": [],
      "outputs": [
        {
          "name": "",
          "type": "uint256",
          "internalType": "uint256"
        }
      ],
      "stateMutability": "view"
    },
    {
      "type": "function",
      "name": "vestingWithdraw",
      "inputs": [
        {
          "name": "to",
          "type": "address",
          "internalType": "address"
        },
        {
          "name": "amount",
          "type": "uint256",
          "internalType": "uint256"
        }
      ],
      "outputs": [
        {
          "name": "",
          "type": "uint256",
          "internalType": "uint256"
        }
      ],
      "stateMutability": "nonpayable"
    },
    {
      "type": "function",
      "name": "withdraw",
      "inputs": [
        {
          "name": "",
          "type": "uint256",
          "internalType": "uint256"
        },
        {
          "name": "",
          "type": "address",
          "internalType": "address"
        },
        {
          "name": "",
          "type": "address",
          "internalType": "address"
        }
      ],
      "outputs": [
        {
          "name": "",
          "type": "uint256",
          "internalType": "uint256"
        }
      ],
      "stateMutability": "pure"
    },
    {
      "type": "event",
      "name": "Approval",
      "inputs": [
        {
          "name": "owner",
          "type": "address",
          "indexed": true,
          "internalType": "address"
        },
        {
          "name": "spender",
          "type": "address",
          "indexed": true,
          "internalType": "address"
        },
        {
          "name": "value",
          "type": "uint256",
          "indexed": false,
          "internalType": "uint256"
        }
      ],
      "anonymous": false
    },
    {
      "type": "event",
      "name": "Deposit",
      "inputs": [
        {
          "name": "sender",
          "type": "address",
          "indexed": true,
          "internalType": "address"
        },
        {
          "name": "owner",
          "type": "address",
          "indexed": true,
          "internalType": "address"
        },
        {
          "name": "assets",
          "type": "uint256",
          "indexed": false,
          "internalType": "uint256"
        },
        {
          "name": "shares",
          "type": "uint256",
          "indexed": false,
          "internalType": "uint256"
        }
      ],
      "anonymous": false
    },
    {
      "type": "event",
      "name": "RequestWithdraw",
      "inputs": [
        {
          "name": "sender",
          "type": "address",
          "indexed": true,
          "internalType": "address"
        },
        {
          "name": "receiver",
          "type": "address",
          "indexed": true,
          "internalType": "address"
        },
        {
          "name": "owner",
          "type": "address",
          "indexed": true,
          "internalType": "address"
        },
        {
          "name": "unlockTime",
          "type": "uint256",
          "indexed": false,
          "internalType": "uint256"
        },
        {
          "name": "assets",
          "type": "uint256",
          "indexed": false,
          "internalType": "uint256"
        },
        {
          "name": "shares",
          "type": "uint256",
          "indexed": false,
          "internalType": "uint256"
        }
      ],
      "anonymous": false
    },
    {
      "type": "event",
      "name": "RoleAdminChanged",
      "inputs": [
        {
          "name": "role",
          "type": "bytes32",
          "indexed": true,
          "internalType": "bytes32"
        },
        {
          "name": "previousAdminRole",
          "type": "bytes32",
          "indexed": true,
          "internalType": "bytes32"
        },
        {
          "name": "newAdminRole",
          "type": "bytes32",
          "indexed": true,
          "internalType": "bytes32"
        }
      ],
      "anonymous": false
    },
    {
      "type": "event",
      "name": "RoleGranted",
      "inputs": [
        {
          "name": "role",
          "type": "bytes32",
          "indexed": true,
          "internalType": "bytes32"
        },
        {
          "name": "account",
          "type": "address",
          "indexed": true,
          "internalType": "address"
        },
        {
          "name": "sender",
          "type": "address",
          "indexed": true,
          "internalType": "address"
        }
      ],
      "anonymous": false
    },
    {
      "type": "event",
      "name": "RoleRevoked",
      "inputs": [
        {
          "name": "role",
          "type": "bytes32",
          "indexed": true,
          "internalType": "bytes32"
        },
        {
          "name": "account",
          "type": "address",
          "indexed": true,
          "internalType": "address"
        },
        {
          "name": "sender",
          "type": "address",
          "indexed": true,
          "internalType": "address"
        }
      ],
      "anonymous": false
    },
    {
      "type": "event",
      "name": "Transfer",
      "inputs": [
        {
          "name": "from",
          "type": "address",
          "indexed": true,
          "internalType": "address"
        },
        {
          "name": "to",
          "type": "address",
          "indexed": true,
          "internalType": "address"
        },
        {
          "name": "value",
          "type": "uint256",
          "indexed": false,
          "internalType": "uint256"
        }
      ],
      "anonymous": false
    },
    {
      "type": "event",
      "name": "VestingDeposit",
      "inputs": [
        {
          "name": "from",
          "type": "address",
          "indexed": true,
          "internalType": "address"
        },
        {
          "name": "amount",
          "type": "uint256",
          "indexed": false,
          "internalType": "uint256"
        }
      ],
      "anonymous": false
    },
    {
      "type": "event",
      "name": "VestingWithdraw",
      "inputs": [
        {
          "name": "to",
          "type": "address",
          "indexed": true,
          "internalType": "address"
        },
        {
          "name": "amount",
          "type": "uint256",
          "indexed": false,
          "internalType": "uint256"
        }
      ],
      "anonymous": false
    },
    {
      "type": "event",
      "name": "Withdraw",
      "inputs": [
        {
          "name": "sender",
          "type": "address",
          "indexed": true,
          "internalType": "address"
        },
        {
          "name": "receiver",
          "type": "address",
          "indexed": true,
          "internalType": "address"
        },
        {
          "name": "owner",
          "type": "address",
          "indexed": true,
          "internalType": "address"
        },
        {
          "name": "assets",
          "type": "uint256",
          "indexed": false,
          "internalType": "uint256"
        },
        {
          "name": "shares",
          "type": "uint256",
          "indexed": false,
          "internalType": "uint256"
        }
      ],
      "anonymous": false
    },
    {
      "type": "error",
      "name": "AccessControlBadConfirmation",
      "inputs": []
    },
    {
      "type": "error",
      "name": "AccessControlUnauthorizedAccount",
      "inputs": [
        {
          "name": "account",
          "type": "address",
          "internalType": "address"
        },
        {
          "name": "neededRole",
          "type": "bytes32",
          "internalType": "bytes32"
        }
      ]
    },
    {
      "type": "error",
      "name": "ERC20InsufficientAllowance",
      "inputs": [
        {
          "name": "spender",
          "type": "address",
          "internalType": "address"
        },
        {
          "name": "allowance",
          "type": "uint256",
          "internalType": "uint256"
        },
        {
          "name": "needed",
          "type": "uint256",
          "internalType": "uint256"
        }
      ]
    },
    {
      "type": "error",
      "name": "ERC20InsufficientBalance",
      "inputs": [
        {
          "name": "sender",
          "type": "address",
          "internalType": "address"
        },
        {
          "name": "balance",
          "type": "uint256",
          "internalType": "uint256"
        },
        {
          "name": "needed",
          "type": "uint256",
          "internalType": "uint256"
        }
      ]
    },
    {
      "type": "error",
      "name": "ERC20InvalidApprover",
      "inputs": [
        {
          "name": "approver",
          "type": "address",
          "internalType": "address"
        }
      ]
    },
    {
      "type": "error",
      "name": "ERC20InvalidReceiver",
      "inputs": [
        {
          "name": "receiver",
          "type": "address",
          "internalType": "address"
        }
      ]
    },
    {
      "type": "error",
      "name": "ERC20InvalidSender",
      "inputs": [
        {
          "name": "sender",
          "type": "address",
          "internalType": "address"
        }
      ]
    },
    {
      "type": "error",
      "name": "ERC20InvalidSpender",
      "inputs": [
        {
          "name": "spender",
          "type": "address",
          "internalType": "address"
        }
      ]
    },
    {
      "type": "error",
      "name": "ERC4626ExceededMaxDeposit",
      "inputs": [
        {
          "name": "receiver",
          "type": "address",
          "internalType": "address"
        },
        {
          "name": "assets",
          "type": "uint256",
          "internalType": "uint256"
        },
        {
          "name": "max",
          "type": "uint256",
          "internalType": "uint256"
        }
      ]
    },
    {
      "type": "error",
      "name": "ERC4626ExceededMaxMint",
      "inputs": [
        {
          "name": "receiver",
          "type": "address",
          "internalType": "address"
        },
        {
          "name": "shares",
          "type": "uint256",
          "internalType": "uint256"
        },
        {
          "name": "max",
          "type": "uint256",
          "internalType": "uint256"
        }
      ]
    },
    {
      "type": "error",
      "name": "ERC4626ExceededMaxRedeem",
      "inputs": [
        {
          "name": "owner",
          "type": "address",
          "internalType": "address"
        },
        {
          "name": "shares",
          "type": "uint256",
          "internalType": "uint256"
        },
        {
          "name": "max",
          "type": "uint256",
          "internalType": "uint256"
        }
      ]
    },
    {
      "type": "error",
      "name": "ERC4626ExceededMaxWithdraw",
      "inputs": [
        {
          "name": "owner",
          "type": "address",
          "internalType": "address"
        },
        {
          "name": "assets",
          "type": "uint256",
          "internalType": "uint256"
        },
        {
          "name": "max",
          "type": "uint256",
          "internalType": "uint256"
        }
      ]
    },
    {
      "type": "error",
      "name": "ReentrancyGuardReentrantCall",
      "inputs": []
    },
    {
      "type": "error",
      "name": "SafeCastOverflowedUintDowncast",
      "inputs": [
        {
          "name": "bits",
          "type": "uint8",
          "internalType": "uint8"
        },
        {
          "name": "value",
          "type": "uint256",
          "internalType": "uint256"
        }
      ]
    },
    {
      "type": "error",
      "name": "SafeERC20FailedOperation",
      "inputs": [
        {
          "name": "token",
          "type": "address",
          "internalType": "address"
        }
      ]
    },
    {
      "type": "error",
      "name": "UnusedFunction",
      "inputs": []
    },
    {
      "type": "error",
      "name": "VestingWithdrawAmountExceeded",
      "inputs": [
        {
          "name": "amount",
          "type": "uint256",
          "internalType": "uint256"
        },
        {
          "name": "maxAmount",
          "type": "uint256",
          "internalType": "uint256"
        }
      ]
    },
    {
      "type": "error",
      "name": "WithdrawLocked",
      "inputs": [
        {
          "name": "unlockTime",
          "type": "uint256",
          "internalType": "uint256"
        },
        {
          "name": "currentTime",
          "type": "uint256",
          "internalType": "uint256"
        }
      ]
    }
  ],
  "bytecode": {
    "object": "0x60e060405234801561000f575f80fd5b506040516125fb3803806125fb83398101604081905261002e9161034f565b838383600361003d8382610457565b50600461004a8282610457565b5050505f8061005e8361011960201b60201c565b915091508161006e576012610070565b805b60ff1660a05250506001600160a01b0390811660805260068054600160301b600160d01b031916660100000000000084841602179055841660c0526100b55f336101ef565b6101105760405162461bcd60e51b815260206004820152602260248201527f6772616e74696e672064656661756c742061646d696e20726f6c65206661696c604482015261195960f21b606482015260840160405180910390fd5b50505050610543565b60408051600481526024810182526020810180516001600160e01b031663313ce56760e01b17905290515f918291829182916001600160a01b0387169161015f91610516565b5f60405180830381855afa9150503d805f8114610197576040519150601f19603f3d011682016040523d82523d5f602084013e61019c565b606091505b50915091508180156101b057506020815110155b156101e3575f818060200190518101906101ca919061052c565b905060ff81116101e1576001969095509350505050565b505b505f9485945092505050565b5f8281526005602090815260408083206001600160a01b038516845290915281205460ff16610293575f8381526005602090815260408083206001600160a01b03861684529091529020805460ff1916600117905561024b3390565b6001600160a01b0316826001600160a01b0316847f2f8788117e7eff1d82e926ec794901d17c78024a50270940304540a733656f0d60405160405180910390a4506001610296565b505f5b92915050565b6001600160a01b03811681146102b0575f80fd5b50565b634e487b7160e01b5f52604160045260245ffd5b5f82601f8301126102d6575f80fd5b81516001600160401b03808211156102f0576102f06102b3565b604051601f8301601f19908116603f01168101908282118183101715610318576103186102b3565b81604052838152866020858801011115610330575f80fd5b8360208701602083015e5f602085830101528094505050505092915050565b5f805f8060808587031215610362575f80fd5b845161036d8161029c565b60208601519094506001600160401b0380821115610389575f80fd5b610395888389016102c7565b945060408701519150808211156103aa575f80fd5b506103b7878288016102c7565b92505060608501516103c88161029c565b939692955090935050565b600181811c908216806103e757607f821691505b60208210810361040557634e487b7160e01b5f52602260045260245ffd5b50919050565b601f82111561045257805f5260205f20601f840160051c810160208510156104305750805b601f840160051c820191505b8181101561044f575f815560010161043c565b50505b505050565b81516001600160401b03811115610470576104706102b3565b6104848161047e84546103d3565b8461040b565b602080601f8311600181146104b7575f84156104a05750858301515b5f19600386901b1c1916600185901b17855561050e565b5f85815260208120601f198616915b828110156104e5578886015182559484019460019091019084016104c6565b508582101561050257878501515f19600388901b60f8161c191681555b505060018460011b0185555b505050505050565b5f82518060208501845e5f920191825250919050565b5f6020828403121561053c575f80fd5b5051919050565b60805160a05160c0516120646105975f395f61053c01525f61094601525f8181610470015281816109da01528181610e34015281816110b1015281816115060152818161168101526119fc01526120645ff3fe608060405234801561000f575f80fd5b50600436106102e5575f3560e01c80637d41c86e11610195578063bbc7539a116100e4578063d953a8671161009e578063e74b981b11610079578063e74b981b146106e6578063ee0be4a7146106f9578063ee61e0cd1461070c578063ef8b30f714610626575f80fd5b8063d953a86714610672578063db006a751461069b578063dd62ed3e146106ae575f80fd5b8063bbc7539a14610613578063c63d75b6146104a8578063c6e6f59214610626578063ce96cb7714610639578063d547741f1461064c578063d905777e1461065f575f80fd5b80639cd8b3ef1161014f578063b3d7f6b91161012a578063b3d7f6b9146105e9578063b460af94146105fc578063b8606eef1461060a578063ba087652146105fc575f80fd5b80639cd8b3ef146105af578063a217fddf146105cf578063a9059cbb146105d6575f80fd5b80637d41c86e1461055e57806384a1931f1461057157806391d148541461057957806394bf804d1461058c57806395d89b411461059f5780639717f317146105a7575f80fd5b8063254800d411610251578063402d267d1161020b5780634cdad506116101e65780634cdad506146104e95780636e553f65146104fc57806370a082311461050f5780637158da7c14610537575f80fd5b8063402d267d146104a857806343cdb0c9146104bc57806346904840146104cf575f80fd5b8063254800d4146103f05780632bb1b060146104015780632f2ff15d1461042c578063313ce5671461044157806336568abe1461045b57806338d52e0f1461046e575f80fd5b80630a17b06b116102a25780630a17b06b146103755780630a28a477146103885780631514617e1461039b57806318160ddd146103b357806323b872dd146103bb578063248a9ca3146103ce575f80fd5b80630165dd27146102e957806301e1d1141461030f57806301ffc9a71461031757806306fdde031461033a57806307a2d13a1461034f578063095ea7b314610362575b5f80fd5b6102fc6102f7366004611bb0565b61071f565b6040519081526020015b60405180910390f35b6102fc610746565b61032a610325366004611bc7565b610777565b6040519015158152602001610306565b6103426107ad565b6040516103069190611bee565b6102fc61035d366004611bb0565b61083d565b61032a610370366004611c39565b610848565b6102fc610383366004611c61565b61085f565b6102fc610396366004611bb0565b610872565b600854600160401b90046001600160401b03166102fc565b6002546102fc565b61032a6103c9366004611c87565b6108a1565b6102fc6103dc366004611bb0565b5f9081526005602052604090206001015490565b6008546001600160401b03166102fc565b61041461040f366004611c61565b6108c4565b6040516001600160401b039091168152602001610306565b61043f61043a366004611cc0565b610915565b005b61044961093f565b60405160ff9091168152602001610306565b61043f610469366004611cc0565b61096a565b7f00000000000000000000000000000000000000000000000000000000000000005b6040516001600160a01b039091168152602001610306565b6102fc6104b6366004611cea565b505f1990565b6102fc6104ca366004611c39565b6109a2565b60065461049090600160301b90046001600160a01b031681565b6102fc6104f7366004611bb0565b610a61565b6102fc61050a366004611cc0565b610a8a565b6102fc61051d366004611cea565b6001600160a01b03165f9081526020819052604090205490565b6104907f000000000000000000000000000000000000000000000000000000000000000081565b6102fc61056c366004611d03565b610abb565b6102fc610c94565b61032a610587366004611cc0565b610cb1565b6102fc61059a366004611cc0565b610cdb565b610342610cf5565b6009546102fc565b6105c26105bd366004611cea565b610d04565b6040516103069190611d3c565b6102fc5f81565b61032a6105e4366004611c39565b610dad565b6102fc6105f7366004611bb0565b610dba565b6102fc61059a366004611d03565b6102fc60075481565b6102fc610621366004611c39565b610dc6565b6102fc610634366004611bb0565b610e6b565b6102fc610647366004611cea565b610e76565b61043f61065a366004611cc0565b610e98565b6102fc61066d366004611cea565b610ebc565b6006546106849065ffffffffffff1681565b60405165ffffffffffff9091168152602001610306565b6102fc6106a9366004611bb0565b610ed9565b6102fc6106bc366004611db0565b6001600160a01b039182165f90815260016020908152604080832093909416825291909152205490565b6104906106f4366004611cea565b610f91565b610414610707366004611c61565b610fdf565b61043f61071a366004611dd8565b61101c565b5f5f8051602061200f83398151915261073781611054565b60078390558291505b50919050565b5f61075361038342611061565b60095461075e61109a565b6107689190611e11565b6107729190611e24565b905090565b5f6001600160e01b03198216637965db0b60e01b14806107a757506301ffc9a760e01b6001600160e01b03198316145b92915050565b6060600380546107bc90611e37565b80601f01602080910402602001604051908101604052809291908181526020018280546107e890611e37565b80156108335780601f1061080a57610100808354040283529160200191610833565b820191905f5260205f20905b81548152906001019060200180831161081657829003601f168201915b5050505050905090565b5f6107a7825f611122565b5f3361085581858561115a565b5060019392505050565b5f6107a761086c60095490565b83611167565b5f806108868361088160075490565b6111fc565b905061089a6108958285611e24565b61120c565b9392505050565b5f336108ae858285611218565b6108b985858561128d565b506001949350505050565b5f5f8051602061200f8339815191526108dc81611054565b5050600880546fffffffffffffffff00000000000000001916600160401b6001600160401b039384168102919091179182905590041690565b5f8281526005602052604090206001015461092f81611054565b61093983836112ea565b50505050565b5f610772817f0000000000000000000000000000000000000000000000000000000000000000611e69565b6001600160a01b03811633146109935760405163334bd91960e11b815260040160405180910390fd5b61099d828261137b565b505050565b5f6109ab6113e6565b7fd90cc5ea7bfb8cc69dcc851da3d5b241719a2cfabd67306af6b043c3dbbeaec86109d581611054565b610a017f0000000000000000000000000000000000000000000000000000000000000000853086611455565b8260095f828254610a129190611e24565b90915550506040518381526001600160a01b038516907f57d6cdb9093e3db9f8222703cbbd3f6d73f088a6e58ce922e2f9423aae7c1daa9060200160405180910390a2829150506107a76114bc565b5f80610a6c8361083d565b9050610a8081610a7b60075490565b6114e6565b61089a9082611e11565b5f5f19610a9b565b60405180910390fd5b5f610aa585610e6b565b9050610ab333858784611501565b949350505050565b5f610ac46113e6565b5f610ace83610ebc565b905080851115610b0a57604051632e52afbb60e21b81526001600160a01b03841660048201526024810186905260448101829052606401610a92565b6006545f90610b2a90610b259065ffffffffffff1642611e24565b611593565b90505f610b3687610a61565b90505f600a5f876001600160a01b03166001600160a01b031681526020019081526020015f2090508060405180608001604052808565ffffffffffff168152602001896001600160a01b031681526020018481526020018a815250908060018154018082558091505060019003905f5260205f2090600302015f909190919091505f820151815f015f6101000a81548165ffffffffffff021916908365ffffffffffff1602179055506020820151815f0160066101000a8154816001600160a01b0302191690836001600160a01b0316021790555060408201518160010155606082015181600201555050610c2b3089610dad565b506040805165ffffffffffff85168152602081018490529081018990526001600160a01b03808816919089169033907fb0ac77ad3c5ddc9d520c9460a987cb25df1abf8668eaaaaad6d61a88d9e05a2a9060600160405180910390a4509250505061089a6114bc565b6008545f906001600160401b03600160401b820481169116610768565b5f9182526005602090815260408084206001600160a01b0393909316845291905290205460ff1690565b5f6040516376403a8f60e11b815260040160405180910390fd5b6060600480546107bc90611e37565b6001600160a01b0381165f908152600a60209081526040808320805482518185028101850190935280835260609492939192909184015b82821015610da2575f8481526020908190206040805160808101825260038602909201805465ffffffffffff81168452600160301b90046001600160a01b031683850152600180820154928401929092526002015460608301529083529092019101610d3b565b505050509050919050565b5f3361085581858561128d565b5f6107a7826001611122565b5f610dcf6113e6565b7fd90cc5ea7bfb8cc69dcc851da3d5b241719a2cfabd67306af6b043c3dbbeaec8610df981611054565b600954831115610e2f5782610e0d60095490565b60405163f61b14c160e01b815260048101929092526024820152604401610a92565b610e5a7f000000000000000000000000000000000000000000000000000000000000000085856115c5565b8260095f828254610a129190611e11565b5f6107a7825f6115f6565b6001600160a01b0381165f908152602081905260408120546107a7905f611122565b5f82815260056020526040902060010154610eb281611054565b610939838361137b565b6001600160a01b0381165f908152602081905260408120546107a7565b5f610ee26113e6565b335f908152600a60205260408120805484908110610f0257610f02611e82565b5f918252602090912060039091020180549091504265ffffffffffff9091161115610f5357805460405163d1eb70ad60e01b815265ffffffffffff9091166004820152426024820152604401610a92565b610f7e30825f0160069054906101000a90046001600160a01b03163084600101548560020154611625565b600101549050610f8c6114bc565b919050565b5f5f8051602061200f833981519152610fa981611054565b5050600680546601000000000000600160d01b031916600160301b6001600160a01b039384168102919091179182905590041690565b5f5f8051602061200f833981519152610ff781611054565b50506008805467ffffffffffffffff19166001600160401b0392909216918217905590565b5f8051602061200f83398151915261103381611054565b506006805465ffffffffffff191665ffffffffffff92909216919091179055565b61105e81336116b0565b50565b5f6001600160401b0382111561109657604080516306dfcc6560e41b8152600481019190915260248101839052604401610a92565b5090565b6040516370a0823160e01b81523060048201525f907f00000000000000000000000000000000000000000000000000000000000000006001600160a01b0316906370a0823190602401602060405180830381865afa1580156110fe573d5f803e3d5ffd5b505050506040513d601f19601f820116820180604052508101906107729190611e96565b5f61089a61112e610746565b611139906001611e24565b6111445f600a611f8d565b6002546111519190611e24565b859190856116ed565b61099d8383836001611738565b5f61117a6008546001600160401b031690565b826001600160401b0316101561119157505f6107a7565b611199610c94565b826001600160401b0316106111af5750816107a7565b600854600160401b90046001600160401b03166008546001600160401b03166111e1906001600160401b038516611e11565b6111eb9085611f9b565b6111f59190611fc6565b90506107a7565b5f61089a838361271060016116ed565b5f6107a78260016115f6565b6001600160a01b038381165f908152600160209081526040808320938616835292905220545f198114610939578181101561127f57604051637dc7a0d960e11b81526001600160a01b03841660048201526024810182905260448101839052606401610a92565b61093984848484035f611738565b6001600160a01b0383166112b657604051634b637e8f60e11b81525f6004820152602401610a92565b6001600160a01b0382166112df5760405163ec442f0560e01b81525f6004820152602401610a92565b61099d8383836117fc565b5f6112f58383610cb1565b611374575f8381526005602090815260408083206001600160a01b03861684529091529020805460ff1916600117905561132c3390565b6001600160a01b0316826001600160a01b0316847f2f8788117e7eff1d82e926ec794901d17c78024a50270940304540a733656f0d60405160405180910390a45060016107a7565b505f6107a7565b5f6113868383610cb1565b15611374575f8381526005602090815260408083206001600160a01b0386168085529252808320805460ff1916905551339286917ff6391f5c32d9c69d2a47ea670b442974b53935d1edc7fd64eb21e047a839171b9190a45060016107a7565b7f9b779b17422d0df92223018b32b4d1fa46e071723d6817e2486d003becc55f005c1561142657604051633ee5aeb560e01b815260040160405180910390fd5b61145360017f9b779b17422d0df92223018b32b4d1fa46e071723d6817e2486d003becc55f005b90611922565b565b6040516001600160a01b0384811660248301528381166044830152606482018390526109399186918216906323b872dd906084015b604051602081830303815290604052915060e01b6020820180516001600160e01b038381831617835250505050611929565b6114535f7f9b779b17422d0df92223018b32b4d1fa46e071723d6817e2486d003becc55f0061144d565b5f61089a826114f761271082611e24565b85919060016116ed565b61152d7f0000000000000000000000000000000000000000000000000000000000000000853085611455565b6115378382611995565b826001600160a01b0316846001600160a01b03167fdcbc1c05240f31ff3ad067ef1ee35ce4997762752e3a095284754544f4c709d78484604051611585929190918252602082015260400190565b60405180910390a350505050565b5f65ffffffffffff821115611096576040516306dfcc6560e41b81526030600482015260248101839052604401610a92565b6040516001600160a01b0383811660248301526044820183905261099d91859182169063a9059cbb9060640161148a565b5f61089a61160582600a611f8d565b6002546116129190611e24565b61161a610746565b611151906001611e24565b5f6116338361088160075490565b90505f6116506006546001600160a01b03600160301b9091041690565b905061165f87878787876119c9565b5f8211801561167757506001600160a01b0381163014155b156116a7576116a77f000000000000000000000000000000000000000000000000000000000000000082846115c5565b50505050505050565b6116ba8282610cb1565b6116e95760405163e2517d3f60e01b81526001600160a01b038216600482015260248101839052604401610a92565b5050565b5f61171a6116fa83611a89565b801561171557505f848061171057611710611fb2565b868809115b151590565b611725868686611ab5565b61172f9190611e24565b95945050505050565b6001600160a01b0384166117615760405163e602df0560e01b81525f6004820152602401610a92565b6001600160a01b03831661178a57604051634a1406b160e11b81525f6004820152602401610a92565b6001600160a01b038085165f908152600160209081526040808320938716835292905220829055801561093957826001600160a01b0316846001600160a01b03167f8c5be1e5ebec7d5bd14f71427d1e84f3dd0314c0f7b2291e5b200ac8c7c3b9258460405161158591815260200190565b6001600160a01b038316611826578060025f82825461181b9190611e24565b909155506118969050565b6001600160a01b0383165f90815260208190526040902054818110156118785760405163391434e360e21b81526001600160a01b03851660048201526024810182905260448101839052606401610a92565b6001600160a01b0384165f9081526020819052604090209082900390555b6001600160a01b0382166118b2576002805482900390556118d0565b6001600160a01b0382165f9081526020819052604090208054820190555b816001600160a01b0316836001600160a01b03167fddf252ad1be2c89b69c2b068fc378daa952ba7f163c4a11628f55a4df523b3ef8360405161191591815260200190565b60405180910390a3505050565b80825d5050565b5f8060205f8451602086015f885af180611948576040513d5f823e3d81fd5b50505f513d9150811561195f57806001141561196c565b6001600160a01b0384163b155b1561093957604051635274afe760e01b81526001600160a01b0385166004820152602401610a92565b6001600160a01b0382166119be5760405163ec442f0560e01b81525f6004820152602401610a92565b6116e95f83836117fc565b826001600160a01b0316856001600160a01b0316146119ed576119ed838683611218565b6119f78382611b6b565b611a227f000000000000000000000000000000000000000000000000000000000000000085846115c5565b826001600160a01b0316846001600160a01b0316866001600160a01b03167ffbde797d201c681b91056529119e0b02407c7bb96a4a2c75c01fc9667232c8db8585604051611a7a929190918252602082015260400190565b60405180910390a45050505050565b5f6002826003811115611a9e57611a9e611fd9565b611aa89190611fed565b60ff166001149050919050565b5f838302815f1985870982811083820303915050805f03611ae957838281611adf57611adf611fb2565b049250505061089a565b808411611b0057611b006003851502601118611b9f565b5f848688095f868103871696879004966002600389028118808a02820302808a02820302808a02820302808a02820302808a02820302808a02909103029181900381900460010186841190950394909402919094039290920491909117919091029150509392505050565b6001600160a01b038216611b9457604051634b637e8f60e11b81525f6004820152602401610a92565b6116e9825f836117fc565b634e487b715f52806020526024601cfd5b5f60208284031215611bc0575f80fd5b5035919050565b5f60208284031215611bd7575f80fd5b81356001600160e01b03198116811461089a575f80fd5b602081525f82518060208401528060208501604085015e5f604082850101526040601f19601f83011684010191505092915050565b80356001600160a01b0381168114610f8c575f80fd5b5f8060408385031215611c4a575f80fd5b611c5383611c23565b946020939093013593505050565b5f60208284031215611c71575f80fd5b81356001600160401b038116811461089a575f80fd5b5f805f60608486031215611c99575f80fd5b611ca284611c23565b9250611cb060208501611c23565b9150604084013590509250925092565b5f8060408385031215611cd1575f80fd5b82359150611ce160208401611c23565b90509250929050565b5f60208284031215611cfa575f80fd5b61089a82611c23565b5f805f60608486031215611d15575f80fd5b83359250611d2560208501611c23565b9150611d3360408501611c23565b90509250925092565b602080825282518282018190525f919060409081850190868401855b82811015611da3578151805165ffffffffffff168552868101516001600160a01b03168786015285810151868601526060908101519085015260809093019290850190600101611d58565b5091979650505050505050565b5f8060408385031215611dc1575f80fd5b611dca83611c23565b9150611ce160208401611c23565b5f60208284031215611de8575f80fd5b813565ffffffffffff8116811461089a575f80fd5b634e487b7160e01b5f52601160045260245ffd5b818103818111156107a7576107a7611dfd565b808201808211156107a7576107a7611dfd565b600181811c90821680611e4b57607f821691505b60208210810361074057634e487b7160e01b5f52602260045260245ffd5b60ff81811683821601908111156107a7576107a7611dfd565b634e487b7160e01b5f52603260045260245ffd5b5f60208284031215611ea6575f80fd5b5051919050565b600181815b80851115611ee757815f1904821115611ecd57611ecd611dfd565b80851615611eda57918102915b93841c9390800290611eb2565b509250929050565b5f82611efd575060016107a7565b81611f0957505f6107a7565b8160018114611f1f5760028114611f2957611f45565b60019150506107a7565b60ff841115611f3a57611f3a611dfd565b50506001821b6107a7565b5060208310610133831016604e8410600b8410161715611f68575081810a6107a7565b611f728383611ead565b805f1904821115611f8557611f85611dfd565b029392505050565b5f61089a60ff841683611eef565b80820281158282048414176107a7576107a7611dfd565b634e487b7160e01b5f52601260045260245ffd5b5f82611fd457611fd4611fb2565b500490565b634e487b7160e01b5f52602160045260245ffd5b5f60ff831680611fff57611fff611fb2565b8060ff8416069150509291505056fe8af5290a3bc9fb001a334db3080e05f29cbed54f3cf6e308d2db8704d95c4147a2646970667358221220433d0a6a0b083af076f63791d8cf054516543c2cc406157ab39162c2374e7b8564736f6c63430008190033",
    "linkReferences": {}
  },
  "methodIdentifiers": {
    "DEFAULT_ADMIN_ROLE()": "a217fddf",
    "allowance(address,address)": "dd62ed3e",
    "approve(address,uint256)": "095ea7b3",
    "asset()": "38d52e0f",
    "balanceOf(address)": "70a08231",
    "convertToAssets(uint256)": "07a2d13a",
    "convertToShares(uint256)": "c6e6f592",
    "decimals()": "313ce567",
    "deposit(uint256,address)": "6e553f65",
    "feeBasisPoints()": "b8606eef",
    "feeRecipient()": "46904840",
    "getRoleAdmin(bytes32)": "248a9ca3",
    "getVestingDeposit()": "9717f317",
    "getWithdrawRequests(address)": "9cd8b3ef",
    "grantRole(bytes32,address)": "2f2ff15d",
    "hasRole(bytes32,address)": "91d14854",
    "lockTimePeriod()": "d953a867",
    "maxDeposit(address)": "402d267d",
    "maxMint(address)": "c63d75b6",
    "maxRedeem(address)": "d905777e",
    "maxWithdraw(address)": "ce96cb77",
    "mint(uint256,address)": "94bf804d",
    "name()": "06fdde03",
    "previewDeposit(uint256)": "ef8b30f7",
    "previewMint(uint256)": "b3d7f6b9",
    "previewRedeem(uint256)": "4cdad506",
    "previewWithdraw(uint256)": "0a28a477",
    "redeem(uint256)": "db006a75",
    "redeem(uint256,address,address)": "ba087652",
    "renounceRole(bytes32,address)": "36568abe",
    "requestRedeem(uint256,address,address)": "7d41c86e",
    "revokeRole(bytes32,address)": "d547741f",
    "setFeeBasisPoints(uint256)": "0165dd27",
    "setFeeRecipient(address)": "e74b981b",
    "setLockTimePeriod(uint48)": "ee61e0cd",
    "setVestingDuration(uint64)": "2bb1b060",
    "setVestingStart(uint64)": "ee0be4a7",
    "supportsInterface(bytes4)": "01ffc9a7",
    "symbol()": "95d89b41",
    "totalAssets()": "01e1d114",
    "totalSupply()": "18160ddd",
    "transfer(address,uint256)": "a9059cbb",
    "transferFrom(address,address,uint256)": "23b872dd",
    "underlyingAsset()": "7158da7c",
    "vestedAmount(uint64)": "0a17b06b",
    "vestingDeposit(address,uint256)": "43cdb0c9",
    "vestingDuration()": "1514617e",
    "vestingEnd()": "84a1931f",
    "vestingStart()": "254800d4",
    "vestingWithdraw(address,uint256)": "bbc7539a",
    "withdraw(uint256,address,address)": "b460af94"
  },
  "id": 45
}