{
  "abi": [
    {
      "type": "constructor",
      "inputs": [
        {
          "name": "plume",
          "type": "address",
          "internalType": "contract IERC20"
        },
        {
          "name": "name",
          "type": "string",
          "internalType": "string"
        },
        {
          "name": "symbol",
          "type": "string",
          "internalType": "string"
        },
        {
          "name": "_feeRecipient",
          "type": "address",
          "internalType": "address"
        }
      ],
      "stateMutability": "nonpayable"
    },
    {
      "type": "function",
      "name": "DEFAULT_ADMIN_ROLE",
      "inputs": [],
      "outputs": [
        {
          "name": "",
          "type": "bytes32",
          "internalType": "bytes32"
        }
      ],
      "stateMutability": "view"
    },
    {
      "type": "function",
      "name": "allowance",
      "inputs": [
        {
          "name": "owner",
          "type": "address",
          "internalType": "address"
        },
        {
          "name": "spender",
          "type": "address",
          "internalType": "address"
        }
      ],
      "outputs": [
        {
          "name": "",
          "type": "uint256",
          "internalType": "uint256"
        }
      ],
      "stateMutability": "view"
    },
    {
      "type": "function",
      "name": "approve",
      "inputs": [
        {
          "name": "spender",
          "type": "address",
          "internalType": "address"
        },
        {
          "name": "value",
          "type": "uint256",
          "internalType": "uint256"
        }
      ],
      "outputs": [
        {
          "name": "",
          "type": "bool",
          "internalType": "bool"
        }
      ],
      "stateMutability": "nonpayable"
    },
    {
      "type": "function",
      "name": "asset",
      "inputs": [],
      "outputs": [
        {
          "name": "",
          "type": "address",
          "internalType": "address"
        }
      ],
      "stateMutability": "view"
    },
    {
      "type": "function",
      "name": "balanceOf",
      "inputs": [
        {
          "name": "account",
          "type": "address",
          "internalType": "address"
        }
      ],
      "outputs": [
        {
          "name": "",
          "type": "uint256",
          "internalType": "uint256"
        }
      ],
      "stateMutability": "view"
    },
    {
      "type": "function",
      "name": "convertToAssets",
      "inputs": [
        {
          "name": "shares",
          "type": "uint256",
          "internalType": "uint256"
        }
      ],
      "outputs": [
        {
          "name": "",
          "type": "uint256",
          "internalType": "uint256"
        }
      ],
      "stateMutability": "view"
    },
    {
      "type": "function",
      "name": "convertToShares",
      "inputs": [
        {
          "name": "assets",
          "type": "uint256",
          "internalType": "uint256"
        }
      ],
      "outputs": [
        {
          "name": "",
          "type": "uint256",
          "internalType": "uint256"
        }
      ],
      "stateMutability": "view"
    },
    {
      "type": "function",
      "name": "decimals",
      "inputs": [],
      "outputs": [
        {
          "name": "",
          "type": "uint8",
          "internalType": "uint8"
        }
      ],
      "stateMutability": "view"
    },
    {
      "type": "function",
      "name": "deposit",
      "inputs": [
        {
          "name": "assets",
          "type": "uint256",
          "internalType": "uint256"
        },
        {
          "name": "receiver",
          "type": "address",
          "internalType": "address"
        }
      ],
      "outputs": [
        {
          "name": "",
          "type": "uint256",
          "internalType": "uint256"
        }
      ],
      "stateMutability": "nonpayable"
    },
    {
      "type": "function",
      "name": "feeBasisPoints",
      "inputs": [],
      "outputs": [
        {
          "name": "",
          "type": "uint256",
          "internalType": "uint256"
        }
      ],
      "stateMutability": "view"
    },
    {
      "type": "function",
      "name": "feeRecipient",
      "inputs": [],
      "outputs": [
        {
          "name": "",
          "type": "address",
          "internalType": "address"
        }
      ],
      "stateMutability": "view"
    },
    {
      "type": "function",
      "name": "getRoleAdmin",
      "inputs": [
        {
          "name": "role",
          "type": "bytes32",
          "internalType": "bytes32"
        }
      ],
      "outputs": [
        {
          "name": "",
          "type": "bytes32",
          "internalType": "bytes32"
        }
      ],
      "stateMutability": "view"
    },
    {
      "type": "function",
      "name": "getVestingDeposit",
      "inputs": [],
      "outputs": [
        {
          "name": "",
          "type": "uint256",
          "internalType": "uint256"
        }
      ],
      "stateMutability": "view"
    },
    {
      "type": "function",
      "name": "getWithdrawRequests",
      "inputs": [],
      "outputs": [
        {
          "name": "",
          "type": "tuple[]",
          "internalType": "struct SoleraStaking.WithdrawRequest[]",
          "components": [
            {
              "name": "unlockTime",
              "type": "uint48",
              "internalType": "uint48"
            },
            {
              "name": "receiver",
              "type": "address",
              "internalType": "address"
            },
            {
              "name": "assets",
              "type": "uint256",
              "internalType": "uint256"
            }
          ]
        }
      ],
      "stateMutability": "view"
    },
    {
      "type": "function",
      "name": "grantRole",
      "inputs": [
        {
          "name": "role",
          "type": "bytes32",
          "internalType": "bytes32"
        },
        {
          "name": "account",
          "type": "address",
          "internalType": "address"
        }
      ],
      "outputs": [],
      "stateMutability": "nonpayable"
    },
    {
      "type": "function",
      "name": "hasRole",
      "inputs": [
        {
          "name": "role",
          "type": "bytes32",
          "internalType": "bytes32"
        },
        {
          "name": "account",
          "type": "address",
          "internalType": "address"
        }
      ],
      "outputs": [
        {
          "name": "",
          "type": "bool",
          "internalType": "bool"
        }
      ],
      "stateMutability": "view"
    },
    {
      "type": "function",
      "name": "lockTimePeriod",
      "inputs": [],
      "outputs": [
        {
          "name": "",
          "type": "uint48",
          "internalType": "uint48"
        }
      ],
      "stateMutability": "view"
    },
    {
      "type": "function",
      "name": "maxDeposit",
      "inputs": [
        {
          "name": "",
          "type": "address",
          "internalType": "address"
        }
      ],
      "outputs": [
        {
          "name": "",
          "type": "uint256",
          "internalType": "uint256"
        }
      ],
      "stateMutability": "view"
    },
    {
      "type": "function",
      "name": "maxMint",
      "inputs": [
        {
          "name": "",
          "type": "address",
          "internalType": "address"
        }
      ],
      "outputs": [
        {
          "name": "",
          "type": "uint256",
          "internalType": "uint256"
        }
      ],
      "stateMutability": "view"
    },
    {
      "type": "function",
      "name": "maxRedeem",
      "inputs": [
        {
          "name": "owner",
          "type": "address",
          "internalType": "address"
        }
      ],
      "outputs": [
        {
          "name": "",
          "type": "uint256",
          "internalType": "uint256"
        }
      ],
      "stateMutability": "view"
    },
    {
      "type": "function",
      "name": "maxWithdraw",
      "inputs": [
        {
          "name": "owner",
          "type": "address",
          "internalType": "address"
        }
      ],
      "outputs": [
        {
          "name": "",
          "type": "uint256",
          "internalType": "uint256"
        }
      ],
      "stateMutability": "view"
    },
    {
      "type": "function",
      "name": "mint",
      "inputs": [
        {
          "name": "",
          "type": "uint256",
          "internalType": "uint256"
        },
        {
          "name": "",
          "type": "address",
          "internalType": "address"
        }
      ],
      "outputs": [
        {
          "name": "",
          "type": "uint256",
          "internalType": "uint256"
        }
      ],
      "stateMutability": "pure"
    },
    {
      "type": "function",
      "name": "name",
      "inputs": [],
      "outputs": [
        {
          "name": "",
          "type": "string",
          "internalType": "string"
        }
      ],
      "stateMutability": "view"
    },
    {
      "type": "function",
      "name": "previewDeposit",
      "inputs": [
        {
          "name": "assets",
          "type": "uint256",
          "internalType": "uint256"
        }
      ],
      "outputs": [
        {
          "name": "",
          "type": "uint256",
          "internalType": "uint256"
        }
      ],
      "stateMutability": "view"
    },
    {
      "type": "function",
      "name": "previewMint",
      "inputs": [
        {
          "name": "shares",
          "type": "uint256",
          "internalType": "uint256"
        }
      ],
      "outputs": [
        {
          "name": "",
          "type": "uint256",
          "internalType": "uint256"
        }
      ],
      "stateMutability": "view"
    },
    {
      "type": "function",
      "name": "previewRedeem",
      "inputs": [
        {
          "name": "shares",
          "type": "uint256",
          "internalType": "uint256"
        }
      ],
      "outputs": [
        {
          "name": "",
          "type": "uint256",
          "internalType": "uint256"
        }
      ],
      "stateMutability": "view"
    },
    {
      "type": "function",
      "name": "previewWithdraw",
      "inputs": [
        {
          "name": "assets",
          "type": "uint256",
          "internalType": "uint256"
        }
      ],
      "outputs": [
        {
          "name": "",
          "type": "uint256",
          "internalType": "uint256"
        }
      ],
      "stateMutability": "view"
    },
    {
      "type": "function",
      "name": "redeem",
      "inputs": [
        {
          "name": "",
          "type": "uint256",
          "internalType": "uint256"
        },
        {
          "name": "",
          "type": "address",
          "internalType": "address"
        },
        {
          "name": "",
          "type": "address",
          "internalType": "address"
        }
      ],
      "outputs": [
        {
          "name": "",
          "type": "uint256",
          "internalType": "uint256"
        }
      ],
      "stateMutability": "pure"
    },
    {
      "type": "function",
      "name": "redeem",
      "inputs": [
        {
          "name": "requestIndex",
          "type": "uint256",
          "internalType": "uint256"
        }
      ],
      "outputs": [
        {
          "name": "",
          "type": "uint256",
          "internalType": "uint256"
        }
      ],
      "stateMutability": "nonpayable"
    },
    {
      "type": "function",
      "name": "renounceRole",
      "inputs": [
        {
          "name": "role",
          "type": "bytes32",
          "internalType": "bytes32"
        },
        {
          "name": "callerConfirmation",
          "type": "address",
          "internalType": "address"
        }
      ],
      "outputs": [],
      "stateMutability": "nonpayable"
    },
    {
      "type": "function",
      "name": "requestRedeem",
      "inputs": [
        {
          "name": "shares",
          "type": "uint256",
          "internalType": "uint256"
        },
        {
          "name": "receiver",
          "type": "address",
          "internalType": "address"
        },
        {
          "name": "owner",
          "type": "address",
          "internalType": "address"
        }
      ],
      "outputs": [
        {
          "name": "",
          "type": "uint256",
          "internalType": "uint256"
        }
      ],
      "stateMutability": "nonpayable"
    },
    {
      "type": "function",
      "name": "revokeRole",
      "inputs": [
        {
          "name": "role",
          "type": "bytes32",
          "internalType": "bytes32"
        },
        {
          "name": "account",
          "type": "address",
          "internalType": "address"
        }
      ],
      "outputs": [],
      "stateMutability": "nonpayable"
    },
    {
      "type": "function",
      "name": "setFeeBasisPoints",
      "inputs": [
        {
          "name": "_feeBasisPoints",
          "type": "uint256",
          "internalType": "uint256"
        }
      ],
      "outputs": [
        {
          "name": "",
          "type": "uint256",
          "internalType": "uint256"
        }
      ],
      "stateMutability": "nonpayable"
    },
    {
      "type": "function",
      "name": "setFeeRecipient",
      "inputs": [
        {
          "name": "_feeRecipient",
          "type": "address",
          "internalType": "address"
        }
      ],
      "outputs": [
        {
          "name": "",
          "type": "address",
          "internalType": "address"
        }
      ],
      "stateMutability": "nonpayable"
    },
    {
      "type": "function",
      "name": "setLockTimePeriod",
      "inputs": [
        {
          "name": "_lockTimePeriod",
          "type": "uint48",
          "internalType": "uint48"
        }
      ],
      "outputs": [],
      "stateMutability": "nonpayable"
    },
    {
      "type": "function",
      "name": "setVestingDuration",
      "inputs": [
        {
          "name": "durationSeconds",
          "type": "uint64",
          "internalType": "uint64"
        }
      ],
      "outputs": [
        {
          "name": "",
          "type": "uint64",
          "internalType": "uint64"
        }
      ],
      "stateMutability": "nonpayable"
    },
    {
      "type": "function",
      "name": "setVestingStart",
      "inputs": [
        {
          "name": "startTimestamp",
          "type": "uint64",
          "internalType": "uint64"
        }
      ],
      "outputs": [
        {
          "name": "",
          "type": "uint64",
          "internalType": "uint64"
        }
      ],
      "stateMutability": "nonpayable"
    },
    {
      "type": "function",
      "name": "supportsInterface",
      "inputs": [
        {
          "name": "interfaceId",
          "type": "bytes4",
          "internalType": "bytes4"
        }
      ],
      "outputs": [
        {
          "name": "",
          "type": "bool",
          "internalType": "bool"
        }
      ],
      "stateMutability": "view"
    },
    {
      "type": "function",
      "name": "symbol",
      "inputs": [],
      "outputs": [
        {
          "name": "",
          "type": "string",
          "internalType": "string"
        }
      ],
      "stateMutability": "view"
    },
    {
      "type": "function",
      "name": "totalAssets",
      "inputs": [],
      "outputs": [
        {
          "name": "",
          "type": "uint256",
          "internalType": "uint256"
        }
      ],
      "stateMutability": "view"
    },
    {
      "type": "function",
      "name": "totalSupply",
      "inputs": [],
      "outputs": [
        {
          "name": "",
          "type": "uint256",
          "internalType": "uint256"
        }
      ],
      "stateMutability": "view"
    },
    {
      "type": "function",
      "name": "transfer",
      "inputs": [
        {
          "name": "to",
          "type": "address",
          "internalType": "address"
        },
        {
          "name": "value",
          "type": "uint256",
          "internalType": "uint256"
        }
      ],
      "outputs": [
        {
          "name": "",
          "type": "bool",
          "internalType": "bool"
        }
      ],
      "stateMutability": "nonpayable"
    },
    {
      "type": "function",
      "name": "transferFrom",
      "inputs": [
        {
          "name": "from",
          "type": "address",
          "internalType": "address"
        },
        {
          "name": "to",
          "type": "address",
          "internalType": "address"
        },
        {
          "name": "value",
          "type": "uint256",
          "internalType": "uint256"
        }
      ],
      "outputs": [
        {
          "name": "",
          "type": "bool",
          "internalType": "bool"
        }
      ],
      "stateMutability": "nonpayable"
    },
    {
      "type": "function",
      "name": "underlyingAsset",
      "inputs": [],
      "outputs": [
        {
          "name": "",
          "type": "address",
          "internalType": "address"
        }
      ],
      "stateMutability": "view"
    },
    {
      "type": "function",
      "name": "vestedAmount",
      "inputs": [
        {
          "name": "timestamp",
          "type": "uint64",
          "internalType": "uint64"
        }
      ],
      "outputs": [
        {
          "name": "",
          "type": "uint256",
          "internalType": "uint256"
        }
      ],
      "stateMutability": "view"
    },
    {
      "type": "function",
      "name": "vestingDeposit",
      "inputs": [
        {
          "name": "from",
          "type": "address",
          "internalType": "address"
        },
        {
          "name": "amount",
          "type": "uint256",
          "internalType": "uint256"
        }
      ],
      "outputs": [
        {
          "name": "",
          "type": "uint256",
          "internalType": "uint256"
        }
      ],
      "stateMutability": "nonpayable"
    },
    {
      "type": "function",
      "name": "vestingDuration",
      "inputs": [],
      "outputs": [
        {
          "name": "",
          "type": "uint256",
          "internalType": "uint256"
        }
      ],
      "stateMutability": "view"
    },
    {
      "type": "function",
      "name": "vestingEnd",
      "inputs": [],
      "outputs": [
        {
          "name": "",
          "type": "uint256",
          "internalType": "uint256"
        }
      ],
      "stateMutability": "view"
    },
    {
      "type": "function",
      "name": "vestingStart",
      "inputs": [],
      "outputs": [
        {
          "name": "",
          "type": "uint256",
          "internalType": "uint256"
        }
      ],
      "stateMutability": "view"
    },
    {
      "type": "function",
      "name": "vestingWithdraw",
      "inputs": [
        {
          "name": "to",
          "type": "address",
          "internalType": "address"
        },
        {
          "name": "amount",
          "type": "uint256",
          "internalType": "uint256"
        }
      ],
      "outputs": [
        {
          "name": "",
          "type": "uint256",
          "internalType": "uint256"
        }
      ],
      "stateMutability": "nonpayable"
    },
    {
      "type": "function",
      "name": "withdraw",
      "inputs": [
        {
          "name": "",
          "type": "uint256",
          "internalType": "uint256"
        },
        {
          "name": "",
          "type": "address",
          "internalType": "address"
        },
        {
          "name": "",
          "type": "address",
          "internalType": "address"
        }
      ],
      "outputs": [
        {
          "name": "",
          "type": "uint256",
          "internalType": "uint256"
        }
      ],
      "stateMutability": "pure"
    },
    {
      "type": "event",
      "name": "Approval",
      "inputs": [
        {
          "name": "owner",
          "type": "address",
          "indexed": true,
          "internalType": "address"
        },
        {
          "name": "spender",
          "type": "address",
          "indexed": true,
          "internalType": "address"
        },
        {
          "name": "value",
          "type": "uint256",
          "indexed": false,
          "internalType": "uint256"
        }
      ],
      "anonymous": false
    },
    {
      "type": "event",
      "name": "Deposit",
      "inputs": [
        {
          "name": "sender",
          "type": "address",
          "indexed": true,
          "internalType": "address"
        },
        {
          "name": "owner",
          "type": "address",
          "indexed": true,
          "internalType": "address"
        },
        {
          "name": "assets",
          "type": "uint256",
          "indexed": false,
          "internalType": "uint256"
        },
        {
          "name": "shares",
          "type": "uint256",
          "indexed": false,
          "internalType": "uint256"
        }
      ],
      "anonymous": false
    },
    {
      "type": "event",
      "name": "RequestWithdraw",
      "inputs": [
        {
          "name": "sender",
          "type": "address",
          "indexed": true,
          "internalType": "address"
        },
        {
          "name": "receiver",
          "type": "address",
          "indexed": true,
          "internalType": "address"
        },
        {
          "name": "owner",
          "type": "address",
          "indexed": true,
          "internalType": "address"
        },
        {
          "name": "unlockTime",
          "type": "uint256",
          "indexed": false,
          "internalType": "uint256"
        },
        {
          "name": "assets",
          "type": "uint256",
          "indexed": false,
          "internalType": "uint256"
        },
        {
          "name": "shares",
          "type": "uint256",
          "indexed": false,
          "internalType": "uint256"
        }
      ],
      "anonymous": false
    },
    {
      "type": "event",
      "name": "RoleAdminChanged",
      "inputs": [
        {
          "name": "role",
          "type": "bytes32",
          "indexed": true,
          "internalType": "bytes32"
        },
        {
          "name": "previousAdminRole",
          "type": "bytes32",
          "indexed": true,
          "internalType": "bytes32"
        },
        {
          "name": "newAdminRole",
          "type": "bytes32",
          "indexed": true,
          "internalType": "bytes32"
        }
      ],
      "anonymous": false
    },
    {
      "type": "event",
      "name": "RoleGranted",
      "inputs": [
        {
          "name": "role",
          "type": "bytes32",
          "indexed": true,
          "internalType": "bytes32"
        },
        {
          "name": "account",
          "type": "address",
          "indexed": true,
          "internalType": "address"
        },
        {
          "name": "sender",
          "type": "address",
          "indexed": true,
          "internalType": "address"
        }
      ],
      "anonymous": false
    },
    {
      "type": "event",
      "name": "RoleRevoked",
      "inputs": [
        {
          "name": "role",
          "type": "bytes32",
          "indexed": true,
          "internalType": "bytes32"
        },
        {
          "name": "account",
          "type": "address",
          "indexed": true,
          "internalType": "address"
        },
        {
          "name": "sender",
          "type": "address",
          "indexed": true,
          "internalType": "address"
        }
      ],
      "anonymous": false
    },
    {
      "type": "event",
      "name": "Transfer",
      "inputs": [
        {
          "name": "from",
          "type": "address",
          "indexed": true,
          "internalType": "address"
        },
        {
          "name": "to",
          "type": "address",
          "indexed": true,
          "internalType": "address"
        },
        {
          "name": "value",
          "type": "uint256",
          "indexed": false,
          "internalType": "uint256"
        }
      ],
      "anonymous": false
    },
    {
      "type": "event",
      "name": "VestingDeposit",
      "inputs": [
        {
          "name": "from",
          "type": "address",
          "indexed": true,
          "internalType": "address"
        },
        {
          "name": "amount",
          "type": "uint256",
          "indexed": false,
          "internalType": "uint256"
        }
      ],
      "anonymous": false
    },
    {
      "type": "event",
      "name": "VestingWithdraw",
      "inputs": [
        {
          "name": "to",
          "type": "address",
          "indexed": true,
          "internalType": "address"
        },
        {
          "name": "amount",
          "type": "uint256",
          "indexed": false,
          "internalType": "uint256"
        }
      ],
      "anonymous": false
    },
    {
      "type": "event",
      "name": "Withdraw",
      "inputs": [
        {
          "name": "sender",
          "type": "address",
          "indexed": true,
          "internalType": "address"
        },
        {
          "name": "receiver",
          "type": "address",
          "indexed": true,
          "internalType": "address"
        },
        {
          "name": "owner",
          "type": "address",
          "indexed": true,
          "internalType": "address"
        },
        {
          "name": "assets",
          "type": "uint256",
          "indexed": false,
          "internalType": "uint256"
        },
        {
          "name": "shares",
          "type": "uint256",
          "indexed": false,
          "internalType": "uint256"
        }
      ],
      "anonymous": false
    },
    {
      "type": "error",
      "name": "AccessControlBadConfirmation",
      "inputs": []
    },
    {
      "type": "error",
      "name": "AccessControlUnauthorizedAccount",
      "inputs": [
        {
          "name": "account",
          "type": "address",
          "internalType": "address"
        },
        {
          "name": "neededRole",
          "type": "bytes32",
          "internalType": "bytes32"
        }
      ]
    },
    {
      "type": "error",
      "name": "ERC20InsufficientAllowance",
      "inputs": [
        {
          "name": "spender",
          "type": "address",
          "internalType": "address"
        },
        {
          "name": "allowance",
          "type": "uint256",
          "internalType": "uint256"
        },
        {
          "name": "needed",
          "type": "uint256",
          "internalType": "uint256"
        }
      ]
    },
    {
      "type": "error",
      "name": "ERC20InsufficientBalance",
      "inputs": [
        {
          "name": "sender",
          "type": "address",
          "internalType": "address"
        },
        {
          "name": "balance",
          "type": "uint256",
          "internalType": "uint256"
        },
        {
          "name": "needed",
          "type": "uint256",
          "internalType": "uint256"
        }
      ]
    },
    {
      "type": "error",
      "name": "ERC20InvalidApprover",
      "inputs": [
        {
          "name": "approver",
          "type": "address",
          "internalType": "address"
        }
      ]
    },
    {
      "type": "error",
      "name": "ERC20InvalidReceiver",
      "inputs": [
        {
          "name": "receiver",
          "type": "address",
          "internalType": "address"
        }
      ]
    },
    {
      "type": "error",
      "name": "ERC20InvalidSender",
      "inputs": [
        {
          "name": "sender",
          "type": "address",
          "internalType": "address"
        }
      ]
    },
    {
      "type": "error",
      "name": "ERC20InvalidSpender",
      "inputs": [
        {
          "name": "spender",
          "type": "address",
          "internalType": "address"
        }
      ]
    },
    {
      "type": "error",
      "name": "ERC4626ExceededMaxDeposit",
      "inputs": [
        {
          "name": "receiver",
          "type": "address",
          "internalType": "address"
        },
        {
          "name": "assets",
          "type": "uint256",
          "internalType": "uint256"
        },
        {
          "name": "max",
          "type": "uint256",
          "internalType": "uint256"
        }
      ]
    },
    {
      "type": "error",
      "name": "ERC4626ExceededMaxMint",
      "inputs": [
        {
          "name": "receiver",
          "type": "address",
          "internalType": "address"
        },
        {
          "name": "shares",
          "type": "uint256",
          "internalType": "uint256"
        },
        {
          "name": "max",
          "type": "uint256",
          "internalType": "uint256"
        }
      ]
    },
    {
      "type": "error",
      "name": "ERC4626ExceededMaxRedeem",
      "inputs": [
        {
          "name": "owner",
          "type": "address",
          "internalType": "address"
        },
        {
          "name": "shares",
          "type": "uint256",
          "internalType": "uint256"
        },
        {
          "name": "max",
          "type": "uint256",
          "internalType": "uint256"
        }
      ]
    },
    {
      "type": "error",
      "name": "ERC4626ExceededMaxWithdraw",
      "inputs": [
        {
          "name": "owner",
          "type": "address",
          "internalType": "address"
        },
        {
          "name": "assets",
          "type": "uint256",
          "internalType": "uint256"
        },
        {
          "name": "max",
          "type": "uint256",
          "internalType": "uint256"
        }
      ]
    },
    {
      "type": "error",
      "name": "ReentrancyGuardReentrantCall",
      "inputs": []
    },
    {
      "type": "error",
      "name": "SafeCastOverflowedUintDowncast",
      "inputs": [
        {
          "name": "bits",
          "type": "uint8",
          "internalType": "uint8"
        },
        {
          "name": "value",
          "type": "uint256",
          "internalType": "uint256"
        }
      ]
    },
    {
      "type": "error",
      "name": "SafeERC20FailedOperation",
      "inputs": [
        {
          "name": "token",
          "type": "address",
          "internalType": "address"
        }
      ]
    },
    {
      "type": "error",
      "name": "UnusedFunction",
      "inputs": []
    },
    {
      "type": "error",
      "name": "VestingWithdrawAmountExceeded",
      "inputs": [
        {
          "name": "amount",
          "type": "uint256",
          "internalType": "uint256"
        },
        {
          "name": "maxAmount",
          "type": "uint256",
          "internalType": "uint256"
        }
      ]
    },
    {
      "type": "error",
      "name": "WithdrawLocked",
      "inputs": [
        {
          "name": "unlockTime",
          "type": "uint256",
          "internalType": "uint256"
        },
        {
          "name": "currentTime",
          "type": "uint256",
          "internalType": "uint256"
        }
      ]
    }
  ],
  "bytecode": {
    "object": "0x60e060405234801561000f575f80fd5b5060405161259438038061259483398101604081905261002e9161034f565b838383600361003d8382610457565b50600461004a8282610457565b5050505f8061005e8361011960201b60201c565b915091508161006e576012610070565b805b60ff1660a05250506001600160a01b0390811660805260068054600160301b600160d01b031916660100000000000084841602179055841660c0526100b55f336101ef565b6101105760405162461bcd60e51b815260206004820152602260248201527f6772616e74696e672064656661756c742061646d696e20726f6c65206661696c604482015261195960f21b606482015260840160405180910390fd5b50505050610543565b60408051600481526024810182526020810180516001600160e01b031663313ce56760e01b17905290515f918291829182916001600160a01b0387169161015f91610516565b5f60405180830381855afa9150503d805f8114610197576040519150601f19603f3d011682016040523d82523d5f602084013e61019c565b606091505b50915091508180156101b057506020815110155b156101e3575f818060200190518101906101ca919061052c565b905060ff81116101e1576001969095509350505050565b505b505f9485945092505050565b5f8281526005602090815260408083206001600160a01b038516845290915281205460ff16610293575f8381526005602090815260408083206001600160a01b03861684529091529020805460ff1916600117905561024b3390565b6001600160a01b0316826001600160a01b0316847f2f8788117e7eff1d82e926ec794901d17c78024a50270940304540a733656f0d60405160405180910390a4506001610296565b505f5b92915050565b6001600160a01b03811681146102b0575f80fd5b50565b634e487b7160e01b5f52604160045260245ffd5b5f82601f8301126102d6575f80fd5b81516001600160401b03808211156102f0576102f06102b3565b604051601f8301601f19908116603f01168101908282118183101715610318576103186102b3565b81604052838152866020858801011115610330575f80fd5b8360208701602083015e5f602085830101528094505050505092915050565b5f805f8060808587031215610362575f80fd5b845161036d8161029c565b60208601519094506001600160401b0380821115610389575f80fd5b610395888389016102c7565b945060408701519150808211156103aa575f80fd5b506103b7878288016102c7565b92505060608501516103c88161029c565b939692955090935050565b600181811c908216806103e757607f821691505b60208210810361040557634e487b7160e01b5f52602260045260245ffd5b50919050565b601f82111561045257805f5260205f20601f840160051c810160208510156104305750805b601f840160051c820191505b8181101561044f575f815560010161043c565b50505b505050565b81516001600160401b03811115610470576104706102b3565b6104848161047e84546103d3565b8461040b565b602080601f8311600181146104b7575f84156104a05750858301515b5f19600386901b1c1916600185901b17855561050e565b5f85815260208120601f198616915b828110156104e5578886015182559484019460019091019084016104c6565b508582101561050257878501515f19600388901b60f8161c191681555b505060018460011b0185555b505050505050565b5f82518060208501845e5f920191825250919050565b5f6020828403121561053c575f80fd5b5051919050565b60805160a05160c051611ff661059e5f395f818161053c0152610edc01525f61093b01525f8181610470015281816109cf01528181610db40152818161104e015281816114a3015281816115be01526119990152611ff65ff3fe608060405234801561000f575f80fd5b50600436106102e5575f3560e01c80637d41c86e11610195578063bbc7539a116100e4578063d953a8671161009e578063e74b981b11610079578063e74b981b146106db578063ee0be4a7146106ee578063ee61e0cd14610701578063ef8b30f71461061b575f80fd5b8063d953a86714610667578063db006a7514610690578063dd62ed3e146106a3575f80fd5b8063bbc7539a14610608578063c63d75b6146104a8578063c6e6f5921461061b578063ce96cb771461062e578063d547741f14610641578063d905777e14610654575f80fd5b8063a217fddf1161014f578063b3d7f6b91161012a578063b3d7f6b9146105de578063b460af94146105f1578063b8606eef146105ff578063ba087652146105f1575f80fd5b8063a217fddf146105af578063a9059cbb146105b6578063af7130b7146105c9575f80fd5b80637d41c86e1461055e57806384a1931f1461057157806391d148541461057957806394bf804d1461058c57806395d89b411461059f5780639717f317146105a7575f80fd5b8063254800d411610251578063402d267d1161020b5780634cdad506116101e65780634cdad506146104e95780636e553f65146104fc57806370a082311461050f5780637158da7c14610537575f80fd5b8063402d267d146104a857806343cdb0c9146104bc57806346904840146104cf575f80fd5b8063254800d4146103f05780632bb1b060146104015780632f2ff15d1461042c578063313ce5671461044157806336568abe1461045b57806338d52e0f1461046e575f80fd5b80630a17b06b116102a25780630a17b06b146103755780630a28a477146103885780631514617e1461039b57806318160ddd146103b357806323b872dd146103bb578063248a9ca3146103ce575f80fd5b80630165dd27146102e957806301e1d1141461030f57806301ffc9a71461031757806306fdde031461033a57806307a2d13a1461034f578063095ea7b314610362575b5f80fd5b6102fc6102f7366004611b4d565b610714565b6040519081526020015b60405180910390f35b6102fc61073b565b61032a610325366004611b64565b61076c565b6040519015158152602001610306565b6103426107a2565b6040516103069190611b8b565b6102fc61035d366004611b4d565b610832565b61032a610370366004611bd6565b61083d565b6102fc610383366004611bfe565b610854565b6102fc610396366004611b4d565b610867565b600854600160401b90046001600160401b03166102fc565b6002546102fc565b61032a6103c9366004611c24565b610896565b6102fc6103dc366004611b4d565b5f9081526005602052604090206001015490565b6008546001600160401b03166102fc565b61041461040f366004611bfe565b6108b9565b6040516001600160401b039091168152602001610306565b61043f61043a366004611c5d565b61090a565b005b610449610934565b60405160ff9091168152602001610306565b61043f610469366004611c5d565b61095f565b7f00000000000000000000000000000000000000000000000000000000000000005b6040516001600160a01b039091168152602001610306565b6102fc6104b6366004611c87565b505f1990565b6102fc6104ca366004611bd6565b610997565b60065461049090600160301b90046001600160a01b031681565b6102fc6104f7366004611b4d565b610a56565b6102fc61050a366004611c5d565b610a7f565b6102fc61051d366004611c87565b6001600160a01b03165f9081526020819052604090205490565b6104907f000000000000000000000000000000000000000000000000000000000000000081565b6102fc61056c366004611ca0565b610ab0565b6102fc610c28565b61032a610587366004611c5d565b610c45565b6102fc61059a366004611c5d565b610c6f565b610342610c89565b6009546102fc565b6102fc5f81565b61032a6105c4366004611bd6565b610c98565b6105d1610ca5565b6040516103069190611cd9565b6102fc6105ec366004611b4d565b610d3a565b6102fc61059a366004611ca0565b6102fc60075481565b6102fc610616366004611bd6565b610d46565b6102fc610629366004611b4d565b610deb565b6102fc61063c366004611c87565b610df6565b61043f61064f366004611c5d565b610e18565b6102fc610662366004611c87565b610e3c565b6006546106799065ffffffffffff1681565b60405165ffffffffffff9091168152602001610306565b6102fc61069e366004611b4d565b610e59565b6102fc6106b1366004611d42565b6001600160a01b039182165f90815260016020908152604080832093909416825291909152205490565b6104906106e9366004611c87565b610f2e565b6104146106fc366004611bfe565b610f7c565b61043f61070f366004611d6a565b610fb9565b5f5f80516020611fa183398151915261072c81610ff1565b60078390558291505b50919050565b5f61074861038342610ffe565b600954610753611037565b61075d9190611da3565b6107679190611db6565b905090565b5f6001600160e01b03198216637965db0b60e01b148061079c57506301ffc9a760e01b6001600160e01b03198316145b92915050565b6060600380546107b190611dc9565b80601f01602080910402602001604051908101604052809291908181526020018280546107dd90611dc9565b80156108285780601f106107ff57610100808354040283529160200191610828565b820191905f5260205f20905b81548152906001019060200180831161080b57829003601f168201915b5050505050905090565b5f61079c825f6110bf565b5f3361084a8185856110f7565b5060019392505050565b5f61079c61086160095490565b83611104565b5f8061087b8361087660075490565b611199565b905061088f61088a8285611db6565b6111a9565b9392505050565b5f336108a38582856111b5565b6108ae85858561122a565b506001949350505050565b5f5f80516020611fa18339815191526108d181610ff1565b5050600880546fffffffffffffffff00000000000000001916600160401b6001600160401b039384168102919091179182905590041690565b5f8281526005602052604090206001015461092481610ff1565b61092e8383611287565b50505050565b5f610767817f0000000000000000000000000000000000000000000000000000000000000000611dfb565b6001600160a01b03811633146109885760405163334bd91960e11b815260040160405180910390fd5b6109928282611318565b505050565b5f6109a0611383565b7fd90cc5ea7bfb8cc69dcc851da3d5b241719a2cfabd67306af6b043c3dbbeaec86109ca81610ff1565b6109f67f00000000000000000000000000000000000000000000000000000000000000008530866113f2565b8260095f828254610a079190611db6565b90915550506040518381526001600160a01b038516907f57d6cdb9093e3db9f8222703cbbd3f6d73f088a6e58ce922e2f9423aae7c1daa9060200160405180910390a28291505061079c611459565b5f80610a6183610832565b9050610a7581610a7060075490565b611483565b61088f9082611da3565b5f5f19610a90565b60405180910390fd5b5f610a9a85610deb565b9050610aa83385878461149e565b949350505050565b5f610ab9611383565b5f610ac383610e3c565b905080851115610aff57604051632e52afbb60e21b81526001600160a01b03841660048201526024810186905260448101829052606401610a87565b6006545f90610b1f90610b1a9065ffffffffffff1642611db6565b611530565b90505f610b2b87610a56565b6001600160a01b038087165f908152600a60209081526040808320815160608101835265ffffffffffff808a1682528d8716828601908152938201888152835460018181018655858952969097209251600290970290920180549451909716600160301b026001600160d01b03199094169516949094179190911784559151920191909155909150610bc0333088858c611562565b6040805165ffffffffffff85168152602081018490529081018990526001600160a01b03808816919089169033907fb0ac77ad3c5ddc9d520c9460a987cb25df1abf8668eaaaaad6d61a88d9e05a2a9060600160405180910390a4509250505061088f611459565b6008545f906001600160401b03600160401b82048116911661075d565b5f9182526005602090815260408084206001600160a01b0393909316845291905290205460ff1690565b5f6040516376403a8f60e11b815260040160405180910390fd5b6060600480546107b190611dc9565b5f3361084a81858561122a565b335f908152600a60209081526040808320805482518185028101850190935280835260609492939192909184015b82821015610d31575f8481526020908190206040805160608101825260028602909201805465ffffffffffff81168452600160301b90046001600160a01b031683850152600190810154918301919091529083529092019101610cd3565b50505050905090565b5f61079c8260016110bf565b5f610d4f611383565b7fd90cc5ea7bfb8cc69dcc851da3d5b241719a2cfabd67306af6b043c3dbbeaec8610d7981610ff1565b600954831115610daf5782610d8d60095490565b60405163f61b14c160e01b815260048101929092526024820152604401610a87565b610dda7f000000000000000000000000000000000000000000000000000000000000000085856115ed565b8260095f828254610a079190611da3565b5f61079c825f61161e565b6001600160a01b0381165f9081526020819052604081205461079c905f6110bf565b5f82815260056020526040902060010154610e3281610ff1565b61092e8383611318565b6001600160a01b0381165f9081526020819052604081205461079c565b5f610e62611383565b335f908152600a60205260408120805484908110610e8257610e82611e14565b5f918252602090912060029091020180549091504265ffffffffffff9091161115610ed357805460405163d1eb70ad60e01b815265ffffffffffff9091166004820152426024820152604401610a87565b805460018201547f000000000000000000000000000000000000000000000000000000000000000091610f1a916001600160a01b0380851692600160301b900416906115ed565b50600101549050610f29611459565b919050565b5f5f80516020611fa1833981519152610f4681610ff1565b5050600680546601000000000000600160d01b031916600160301b6001600160a01b039384168102919091179182905590041690565b5f5f80516020611fa1833981519152610f9481610ff1565b50506008805467ffffffffffffffff19166001600160401b0392909216918217905590565b5f80516020611fa1833981519152610fd081610ff1565b506006805465ffffffffffff191665ffffffffffff92909216919091179055565b610ffb813361164d565b50565b5f6001600160401b0382111561103357604080516306dfcc6560e41b8152600481019190915260248101839052604401610a87565b5090565b6040516370a0823160e01b81523060048201525f907f00000000000000000000000000000000000000000000000000000000000000006001600160a01b0316906370a0823190602401602060405180830381865afa15801561109b573d5f803e3d5ffd5b505050506040513d601f19601f820116820180604052508101906107679190611e28565b5f61088f6110cb61073b565b6110d6906001611db6565b6110e15f600a611f1f565b6002546110ee9190611db6565b8591908561168a565b61099283838360016116d5565b5f6111176008546001600160401b031690565b826001600160401b0316101561112e57505f61079c565b611136610c28565b826001600160401b03161061114c57508161079c565b600854600160401b90046001600160401b03166008546001600160401b031661117e906001600160401b038516611da3565b6111889085611f2d565b6111929190611f58565b905061079c565b5f61088f8383612710600161168a565b5f61079c82600161161e565b6001600160a01b038381165f908152600160209081526040808320938616835292905220545f19811461092e578181101561121c57604051637dc7a0d960e11b81526001600160a01b03841660048201526024810182905260448101839052606401610a87565b61092e84848484035f6116d5565b6001600160a01b03831661125357604051634b637e8f60e11b81525f6004820152602401610a87565b6001600160a01b03821661127c5760405163ec442f0560e01b81525f6004820152602401610a87565b610992838383611799565b5f6112928383610c45565b611311575f8381526005602090815260408083206001600160a01b03861684529091529020805460ff191660011790556112c93390565b6001600160a01b0316826001600160a01b0316847f2f8788117e7eff1d82e926ec794901d17c78024a50270940304540a733656f0d60405160405180910390a450600161079c565b505f61079c565b5f6113238383610c45565b15611311575f8381526005602090815260408083206001600160a01b0386168085529252808320805460ff1916905551339286917ff6391f5c32d9c69d2a47ea670b442974b53935d1edc7fd64eb21e047a839171b9190a450600161079c565b7f9b779b17422d0df92223018b32b4d1fa46e071723d6817e2486d003becc55f005c156113c357604051633ee5aeb560e01b815260040160405180910390fd5b6113f060017f9b779b17422d0df92223018b32b4d1fa46e071723d6817e2486d003becc55f005b906118bf565b565b6040516001600160a01b03848116602483015283811660448301526064820183905261092e9186918216906323b872dd906084015b604051602081830303815290604052915060e01b6020820180516001600160e01b0383818316178352505050506118c6565b6113f05f7f9b779b17422d0df92223018b32b4d1fa46e071723d6817e2486d003becc55f006113ea565b5f61088f8261149461271082611db6565b859190600161168a565b6114ca7f00000000000000000000000000000000000000000000000000000000000000008530856113f2565b6114d48382611932565b826001600160a01b0316846001600160a01b03167fdcbc1c05240f31ff3ad067ef1ee35ce4997762752e3a095284754544f4c709d78484604051611522929190918252602082015260400190565b60405180910390a350505050565b5f65ffffffffffff821115611033576040516306dfcc6560e41b81526030600482015260248101839052604401610a87565b5f6115708361087660075490565b90505f61158d6006546001600160a01b03600160301b9091041690565b905061159c8787878787611966565b5f821180156115b457506001600160a01b0381163014155b156115e4576115e47f000000000000000000000000000000000000000000000000000000000000000082846115ed565b50505050505050565b6040516001600160a01b0383811660248301526044820183905261099291859182169063a9059cbb90606401611427565b5f61088f61162d82600a611f1f565b60025461163a9190611db6565b61164261073b565b6110ee906001611db6565b6116578282610c45565b6116865760405163e2517d3f60e01b81526001600160a01b038216600482015260248101839052604401610a87565b5050565b5f6116b761169783611a26565b80156116b257505f84806116ad576116ad611f44565b868809115b151590565b6116c2868686611a52565b6116cc9190611db6565b95945050505050565b6001600160a01b0384166116fe5760405163e602df0560e01b81525f6004820152602401610a87565b6001600160a01b03831661172757604051634a1406b160e11b81525f6004820152602401610a87565b6001600160a01b038085165f908152600160209081526040808320938716835292905220829055801561092e57826001600160a01b0316846001600160a01b03167f8c5be1e5ebec7d5bd14f71427d1e84f3dd0314c0f7b2291e5b200ac8c7c3b9258460405161152291815260200190565b6001600160a01b0383166117c3578060025f8282546117b89190611db6565b909155506118339050565b6001600160a01b0383165f90815260208190526040902054818110156118155760405163391434e360e21b81526001600160a01b03851660048201526024810182905260448101839052606401610a87565b6001600160a01b0384165f9081526020819052604090209082900390555b6001600160a01b03821661184f5760028054829003905561186d565b6001600160a01b0382165f9081526020819052604090208054820190555b816001600160a01b0316836001600160a01b03167fddf252ad1be2c89b69c2b068fc378daa952ba7f163c4a11628f55a4df523b3ef836040516118b291815260200190565b60405180910390a3505050565b80825d5050565b5f8060205f8451602086015f885af1806118e5576040513d5f823e3d81fd5b50505f513d915081156118fc578060011415611909565b6001600160a01b0384163b155b1561092e57604051635274afe760e01b81526001600160a01b0385166004820152602401610a87565b6001600160a01b03821661195b5760405163ec442f0560e01b81525f6004820152602401610a87565b6116865f8383611799565b826001600160a01b0316856001600160a01b03161461198a5761198a8386836111b5565b6119948382611b08565b6119bf7f000000000000000000000000000000000000000000000000000000000000000085846115ed565b826001600160a01b0316846001600160a01b0316866001600160a01b03167ffbde797d201c681b91056529119e0b02407c7bb96a4a2c75c01fc9667232c8db8585604051611a17929190918252602082015260400190565b60405180910390a45050505050565b5f6002826003811115611a3b57611a3b611f6b565b611a459190611f7f565b60ff166001149050919050565b5f838302815f1985870982811083820303915050805f03611a8657838281611a7c57611a7c611f44565b049250505061088f565b808411611a9d57611a9d6003851502601118611b3c565b5f848688095f868103871696879004966002600389028118808a02820302808a02820302808a02820302808a02820302808a02820302808a02909103029181900381900460010186841190950394909402919094039290920491909117919091029150509392505050565b6001600160a01b038216611b3157604051634b637e8f60e11b81525f6004820152602401610a87565b611686825f83611799565b634e487b715f52806020526024601cfd5b5f60208284031215611b5d575f80fd5b5035919050565b5f60208284031215611b74575f80fd5b81356001600160e01b03198116811461088f575f80fd5b602081525f82518060208401528060208501604085015e5f604082850101526040601f19601f83011684010191505092915050565b80356001600160a01b0381168114610f29575f80fd5b5f8060408385031215611be7575f80fd5b611bf083611bc0565b946020939093013593505050565b5f60208284031215611c0e575f80fd5b81356001600160401b038116811461088f575f80fd5b5f805f60608486031215611c36575f80fd5b611c3f84611bc0565b9250611c4d60208501611bc0565b9150604084013590509250925092565b5f8060408385031215611c6e575f80fd5b82359150611c7e60208401611bc0565b90509250929050565b5f60208284031215611c97575f80fd5b61088f82611bc0565b5f805f60608486031215611cb2575f80fd5b83359250611cc260208501611bc0565b9150611cd060408501611bc0565b90509250925092565b602080825282518282018190525f919060409081850190868401855b82811015611d35578151805165ffffffffffff168552868101516001600160a01b0316878601528501518585015260609093019290850190600101611cf5565b5091979650505050505050565b5f8060408385031215611d53575f80fd5b611d5c83611bc0565b9150611c7e60208401611bc0565b5f60208284031215611d7a575f80fd5b813565ffffffffffff8116811461088f575f80fd5b634e487b7160e01b5f52601160045260245ffd5b8181038181111561079c5761079c611d8f565b8082018082111561079c5761079c611d8f565b600181811c90821680611ddd57607f821691505b60208210810361073557634e487b7160e01b5f52602260045260245ffd5b60ff818116838216019081111561079c5761079c611d8f565b634e487b7160e01b5f52603260045260245ffd5b5f60208284031215611e38575f80fd5b5051919050565b600181815b80851115611e7957815f1904821115611e5f57611e5f611d8f565b80851615611e6c57918102915b93841c9390800290611e44565b509250929050565b5f82611e8f5750600161079c565b81611e9b57505f61079c565b8160018114611eb15760028114611ebb57611ed7565b600191505061079c565b60ff841115611ecc57611ecc611d8f565b50506001821b61079c565b5060208310610133831016604e8410600b8410161715611efa575081810a61079c565b611f048383611e3f565b805f1904821115611f1757611f17611d8f565b029392505050565b5f61088f60ff841683611e81565b808202811582820484141761079c5761079c611d8f565b634e487b7160e01b5f52601260045260245ffd5b5f82611f6657611f66611f44565b500490565b634e487b7160e01b5f52602160045260245ffd5b5f60ff831680611f9157611f91611f44565b8060ff8416069150509291505056fe8af5290a3bc9fb001a334db3080e05f29cbed54f3cf6e308d2db8704d95c4147a2646970667358221220930434bfb442b1c623b7dcce1d7456e8a825004f64ee82817d33ff2947a10f2364736f6c63430008190033",
    "linkReferences": {}
  },
  "methodIdentifiers": {
    "DEFAULT_ADMIN_ROLE()": "a217fddf",
    "allowance(address,address)": "dd62ed3e",
    "approve(address,uint256)": "095ea7b3",
    "asset()": "38d52e0f",
    "balanceOf(address)": "70a08231",
    "convertToAssets(uint256)": "07a2d13a",
    "convertToShares(uint256)": "c6e6f592",
    "decimals()": "313ce567",
    "deposit(uint256,address)": "6e553f65",
    "feeBasisPoints()": "b8606eef",
    "feeRecipient()": "46904840",
    "getRoleAdmin(bytes32)": "248a9ca3",
    "getVestingDeposit()": "9717f317",
    "getWithdrawRequests()": "af7130b7",
    "grantRole(bytes32,address)": "2f2ff15d",
    "hasRole(bytes32,address)": "91d14854",
    "lockTimePeriod()": "d953a867",
    "maxDeposit(address)": "402d267d",
    "maxMint(address)": "c63d75b6",
    "maxRedeem(address)": "d905777e",
    "maxWithdraw(address)": "ce96cb77",
    "mint(uint256,address)": "94bf804d",
    "name()": "06fdde03",
    "previewDeposit(uint256)": "ef8b30f7",
    "previewMint(uint256)": "b3d7f6b9",
    "previewRedeem(uint256)": "4cdad506",
    "previewWithdraw(uint256)": "0a28a477",
    "redeem(uint256)": "db006a75",
    "redeem(uint256,address,address)": "ba087652",
    "renounceRole(bytes32,address)": "36568abe",
    "requestRedeem(uint256,address,address)": "7d41c86e",
    "revokeRole(bytes32,address)": "d547741f",
    "setFeeBasisPoints(uint256)": "0165dd27",
    "setFeeRecipient(address)": "e74b981b",
    "setLockTimePeriod(uint48)": "ee61e0cd",
    "setVestingDuration(uint64)": "2bb1b060",
    "setVestingStart(uint64)": "ee0be4a7",
    "supportsInterface(bytes4)": "01ffc9a7",
    "symbol()": "95d89b41",
    "totalAssets()": "01e1d114",
    "totalSupply()": "18160ddd",
    "transfer(address,uint256)": "a9059cbb",
    "transferFrom(address,address,uint256)": "23b872dd",
    "underlyingAsset()": "7158da7c",
    "vestedAmount(uint64)": "0a17b06b",
    "vestingDeposit(address,uint256)": "43cdb0c9",
    "vestingDuration()": "1514617e",
    "vestingEnd()": "84a1931f",
    "vestingStart()": "254800d4",
    "vestingWithdraw(address,uint256)": "bbc7539a",
    "withdraw(uint256,address,address)": "b460af94"
  },
  "id": 45
}